{
  "contractName": "Campaign",
  "abi": [
    {
      "inputs": [
        {
          "internalType": "contract CampaignManager",
          "name": "_parentContract",
          "type": "address"
        },
        {
          "internalType": "string",
          "name": "_campaignId",
          "type": "string"
        },
        {
          "internalType": "string",
          "name": "_campaignName",
          "type": "string"
        },
        {
          "internalType": "uint256",
          "name": "_index",
          "type": "uint256"
        }
      ],
      "stateMutability": "nonpayable",
      "type": "constructor"
    },
    {
      "inputs": [],
      "name": "campaignId",
      "outputs": [
        {
          "internalType": "string",
          "name": "",
          "type": "string"
        }
      ],
      "stateMutability": "view",
      "type": "function"
    },
    {
      "inputs": [],
      "name": "campaignName",
      "outputs": [
        {
          "internalType": "string",
          "name": "",
          "type": "string"
        }
      ],
      "stateMutability": "view",
      "type": "function"
    },
    {
      "inputs": [],
      "name": "index",
      "outputs": [
        {
          "internalType": "uint256",
          "name": "",
          "type": "uint256"
        }
      ],
      "stateMutability": "view",
      "type": "function"
    },
    {
      "stateMutability": "payable",
      "type": "receive"
    }
  ],
  "bytecode": "0x60806040523480156200001157600080fd5b5060405162000ad238038062000ad28339818101604052810190620000379190620003bc565b82600090805190602001906200004f929190620000bb565b50816001908051906020019062000068929190620000bb565b508060028190555083600360006101000a81548173ffffffffffffffffffffffffffffffffffffffff021916908373ffffffffffffffffffffffffffffffffffffffff16021790555050505050620004d1565b828054620000c9906200049b565b90600052602060002090601f016020900481019282620000ed576000855562000139565b82601f106200010857805160ff191683800117855562000139565b8280016001018555821562000139579182015b82811115620001385782518255916020019190600101906200011b565b5b5090506200014891906200014c565b5090565b5b80821115620001675760008160009055506001016200014d565b5090565b6000604051905090565b600080fd5b600080fd5b600073ffffffffffffffffffffffffffffffffffffffff82169050919050565b6000620001ac826200017f565b9050919050565b6000620001c0826200019f565b9050919050565b620001d281620001b3565b8114620001de57600080fd5b50565b600081519050620001f281620001c7565b92915050565b600080fd5b600080fd5b6000601f19601f8301169050919050565b7f4e487b7100000000000000000000000000000000000000000000000000000000600052604160045260246000fd5b6200024d8262000202565b810181811067ffffffffffffffff821117156200026f576200026e62000213565b5b80604052505050565b6000620002846200016b565b905062000292828262000242565b919050565b600067ffffffffffffffff821115620002b557620002b462000213565b5b620002c08262000202565b9050602081019050919050565b60005b83811015620002ed578082015181840152602081019050620002d0565b83811115620002fd576000848401525b50505050565b60006200031a620003148462000297565b62000278565b905082815260208101848484011115620003395762000338620001fd565b5b62000346848285620002cd565b509392505050565b600082601f830112620003665762000365620001f8565b5b81516200037884826020860162000303565b91505092915050565b6000819050919050565b620003968162000381565b8114620003a257600080fd5b50565b600081519050620003b6816200038b565b92915050565b60008060008060808587031215620003d957620003d862000175565b5b6000620003e987828801620001e1565b945050602085015167ffffffffffffffff8111156200040d576200040c6200017a565b5b6200041b878288016200034e565b935050604085015167ffffffffffffffff8111156200043f576200043e6200017a565b5b6200044d878288016200034e565b92505060606200046087828801620003a5565b91505092959194509250565b7f4e487b7100000000000000000000000000000000000000000000000000000000600052602260045260246000fd5b60006002820490506001821680620004b457607f821691505b60208210811415620004cb57620004ca6200046c565b5b50919050565b6105f180620004e16000396000f3fe6080604052600436106100385760003560e01c80630724fda9146101a25780632986c0e5146101cd5780638ed5b0fc146101f85761019d565b3661019d576000600360009054906101000a900473ffffffffffffffffffffffffffffffffffffffff1673ffffffffffffffffffffffffffffffffffffffff16343060405160240161008a9190610386565b6040516020818303038152906040527f6682717e000000000000000000000000000000000000000000000000000000007bffffffffffffffffffffffffffffffffffffffffffffffffffffffff19166020820180517bffffffffffffffffffffffffffffffffffffffffffffffffffffffff8381831617835250505050604051610114919061041b565b60006040518083038185875af1925050503d8060008114610151576040519150601f19603f3d011682016040523d82523d6000602084013e610156565b606091505b505090508061019a576040517f08c379a00000000000000000000000000000000000000000000000000000000081526004016101919061048f565b60405180910390fd5b50005b600080fd5b3480156101ae57600080fd5b506101b7610223565b6040516101c49190610504565b60405180910390f35b3480156101d957600080fd5b506101e26102b1565b6040516101ef919061053f565b60405180910390f35b34801561020457600080fd5b5061020d6102b7565b60405161021a9190610504565b60405180910390f35b6001805461023090610589565b80601f016020809104026020016040519081016040528092919081815260200182805461025c90610589565b80156102a95780601f1061027e576101008083540402835291602001916102a9565b820191906000526020600020905b81548152906001019060200180831161028c57829003601f168201915b505050505081565b60025481565b600080546102c490610589565b80601f01602080910402602001604051908101604052809291908181526020018280546102f090610589565b801561033d5780601f106103125761010080835404028352916020019161033d565b820191906000526020600020905b81548152906001019060200180831161032057829003601f168201915b505050505081565b600073ffffffffffffffffffffffffffffffffffffffff82169050919050565b600061037082610345565b9050919050565b61038081610365565b82525050565b600060208201905061039b6000830184610377565b92915050565b600081519050919050565b600081905092915050565b60005b838110156103d55780820151818401526020810190506103ba565b838111156103e4576000848401525b50505050565b60006103f5826103a1565b6103ff81856103ac565b935061040f8185602086016103b7565b80840191505092915050565b600061042782846103ea565b915081905092915050565b600082825260208201905092915050565b7f5061796d656e74206661696c6564000000000000000000000000000000000000600082015250565b6000610479600e83610432565b915061048482610443565b602082019050919050565b600060208201905081810360008301526104a88161046c565b9050919050565b600081519050919050565b6000601f19601f8301169050919050565b60006104d6826104af565b6104e08185610432565b93506104f08185602086016103b7565b6104f9816104ba565b840191505092915050565b6000602082019050818103600083015261051e81846104cb565b905092915050565b6000819050919050565b61053981610526565b82525050565b60006020820190506105546000830184610530565b92915050565b7f4e487b7100000000000000000000000000000000000000000000000000000000600052602260045260246000fd5b600060028204905060018216806105a157607f821691505b602082108114156105b5576105b461055a565b5b5091905056fea26469706673582212208b6045879fb1fa5f51177da98b077bf5d00392539b2b61d9a4ce65882b952d7364736f6c634300080a0033",
  "immutableReferences": {},
  "source": "pragma solidity 0.8.10;\n\n//SPDX-License-Identifier: MIT\n\nimport \"./CampaignManager.sol\";\n\ncontract Campaign {\n\n    string public campaignId;\n    string public campaignName;\n    uint public index;\n    CampaignManager parentContract;\n\n    constructor(CampaignManager _parentContract, string memory _campaignId, string memory _campaignName, uint _index) {\n        campaignId = _campaignId;\n        campaignName = _campaignName;\n        index = _index;\n        parentContract = _parentContract;\n    }\n\n    receive() external payable {\n        (bool success, ) = address(parentContract).call{value:msg.value}(abi.encodeWithSignature(\"fundCampaign(address)\", address(this)));\n        require(success, \"Payment failed\");\n    }\n\n}\n",
  "sourcePath": "/Users/nedsoft/www/blockchain/campaign-manager/contracts/Campaign.sol",
  "compiler": {
    "name": "solc",
    "version": "0.8.10+commit.fc410830.Emscripten.clang"
  },
  "schemaVersion": "3.4.5",
  "updatedAt": "2022-04-18T12:37:38.886Z",
  "devdoc": {
    "kind": "dev",
    "methods": {},
    "version": 1
  },
  "userdoc": {
    "kind": "user",
    "methods": {},
    "version": 1
  }
}