{
  "contractName": "Campaign",
  "abi": [
    {
      "inputs": [
        {
          "internalType": "contract CampaignManager",
          "name": "_parentContract",
          "type": "address"
        },
        {
          "internalType": "string",
          "name": "_campaignId",
          "type": "string"
        },
        {
          "internalType": "string",
          "name": "_campaignName",
          "type": "string"
        },
        {
          "internalType": "uint256",
          "name": "_index",
          "type": "uint256"
        }
      ],
      "stateMutability": "nonpayable",
      "type": "constructor"
    },
    {
      "stateMutability": "nonpayable",
      "type": "fallback"
    },
    {
      "inputs": [],
      "name": "campaignId",
      "outputs": [
        {
          "internalType": "string",
          "name": "",
          "type": "string"
        }
      ],
      "stateMutability": "view",
      "type": "function"
    },
    {
      "inputs": [],
      "name": "campaignName",
      "outputs": [
        {
          "internalType": "string",
          "name": "",
          "type": "string"
        }
      ],
      "stateMutability": "view",
      "type": "function"
    },
    {
      "inputs": [],
      "name": "index",
      "outputs": [
        {
          "internalType": "uint256",
          "name": "",
          "type": "uint256"
        }
      ],
      "stateMutability": "view",
      "type": "function"
    },
    {
      "inputs": [],
      "name": "ownerAddress",
      "outputs": [
        {
          "internalType": "address",
          "name": "",
          "type": "address"
        }
      ],
      "stateMutability": "view",
      "type": "function"
    },
    {
      "stateMutability": "payable",
      "type": "receive"
    }
  ],
  "bytecode": "0x60806040523480156200001157600080fd5b5060405162000b7938038062000b798339818101604052810190620000379190620003fd565b82600090805190602001906200004f929190620000fc565b50816001908051906020019062000068929190620000fc565b508060038190555033600260006101000a81548173ffffffffffffffffffffffffffffffffffffffff021916908373ffffffffffffffffffffffffffffffffffffffff16021790555083600460006101000a81548173ffffffffffffffffffffffffffffffffffffffff021916908373ffffffffffffffffffffffffffffffffffffffff1602179055505050505062000512565b8280546200010a90620004dc565b90600052602060002090601f0160209004810192826200012e57600085556200017a565b82601f106200014957805160ff19168380011785556200017a565b828001600101855582156200017a579182015b82811115620001795782518255916020019190600101906200015c565b5b5090506200018991906200018d565b5090565b5b80821115620001a85760008160009055506001016200018e565b5090565b6000604051905090565b600080fd5b600080fd5b600073ffffffffffffffffffffffffffffffffffffffff82169050919050565b6000620001ed82620001c0565b9050919050565b60006200020182620001e0565b9050919050565b6200021381620001f4565b81146200021f57600080fd5b50565b600081519050620002338162000208565b92915050565b600080fd5b600080fd5b6000601f19601f8301169050919050565b7f4e487b7100000000000000000000000000000000000000000000000000000000600052604160045260246000fd5b6200028e8262000243565b810181811067ffffffffffffffff82111715620002b057620002af62000254565b5b80604052505050565b6000620002c5620001ac565b9050620002d3828262000283565b919050565b600067ffffffffffffffff821115620002f657620002f562000254565b5b620003018262000243565b9050602081019050919050565b60005b838110156200032e57808201518184015260208101905062000311565b838111156200033e576000848401525b50505050565b60006200035b6200035584620002d8565b620002b9565b9050828152602081018484840111156200037a57620003796200023e565b5b620003878482856200030e565b509392505050565b600082601f830112620003a757620003a662000239565b5b8151620003b984826020860162000344565b91505092915050565b6000819050919050565b620003d781620003c2565b8114620003e357600080fd5b50565b600081519050620003f781620003cc565b92915050565b600080600080608085870312156200041a5762000419620001b6565b5b60006200042a8782880162000222565b945050602085015167ffffffffffffffff8111156200044e576200044d620001bb565b5b6200045c878288016200038f565b935050604085015167ffffffffffffffff81111562000480576200047f620001bb565b5b6200048e878288016200038f565b9250506060620004a187828801620003e6565b91505092959194509250565b7f4e487b7100000000000000000000000000000000000000000000000000000000600052602260045260246000fd5b60006002820490506001821680620004f557607f821691505b602082108114156200050c576200050b620004ad565b5b50919050565b61065780620005226000396000f3fe6080604052600436106100435760003560e01c80630724fda9146101b75780632986c0e5146101e25780638ed5b0fc1461020d5780638f84aa0914610238576101a8565b366101a8576000600460009054906101000a900473ffffffffffffffffffffffffffffffffffffffff1673ffffffffffffffffffffffffffffffffffffffff16343060405160240161009591906103ec565b6040516020818303038152906040527f6682717e000000000000000000000000000000000000000000000000000000007bffffffffffffffffffffffffffffffffffffffffffffffffffffffff19166020820180517bffffffffffffffffffffffffffffffffffffffffffffffffffffffff838183161783525050505060405161011f9190610481565b60006040518083038185875af1925050503d806000811461015c576040519150601f19603f3d011682016040523d82523d6000602084013e610161565b606091505b50509050806101a5576040517f08c379a000000000000000000000000000000000000000000000000000000000815260040161019c906104f5565b60405180910390fd5b50005b3480156101b457600080fd5b50005b3480156101c357600080fd5b506101cc610263565b6040516101d9919061056a565b60405180910390f35b3480156101ee57600080fd5b506101f76102f1565b60405161020491906105a5565b60405180910390f35b34801561021957600080fd5b506102226102f7565b60405161022f919061056a565b60405180910390f35b34801561024457600080fd5b5061024d610385565b60405161025a91906103ec565b60405180910390f35b60018054610270906105ef565b80601f016020809104026020016040519081016040528092919081815260200182805461029c906105ef565b80156102e95780601f106102be576101008083540402835291602001916102e9565b820191906000526020600020905b8154815290600101906020018083116102cc57829003601f168201915b505050505081565b60035481565b60008054610304906105ef565b80601f0160208091040260200160405190810160405280929190818152602001828054610330906105ef565b801561037d5780601f106103525761010080835404028352916020019161037d565b820191906000526020600020905b81548152906001019060200180831161036057829003601f168201915b505050505081565b600260009054906101000a900473ffffffffffffffffffffffffffffffffffffffff1681565b600073ffffffffffffffffffffffffffffffffffffffff82169050919050565b60006103d6826103ab565b9050919050565b6103e6816103cb565b82525050565b600060208201905061040160008301846103dd565b92915050565b600081519050919050565b600081905092915050565b60005b8381101561043b578082015181840152602081019050610420565b8381111561044a576000848401525b50505050565b600061045b82610407565b6104658185610412565b935061047581856020860161041d565b80840191505092915050565b600061048d8284610450565b915081905092915050565b600082825260208201905092915050565b7f5061796d656e74206661696c6564000000000000000000000000000000000000600082015250565b60006104df600e83610498565b91506104ea826104a9565b602082019050919050565b6000602082019050818103600083015261050e816104d2565b9050919050565b600081519050919050565b6000601f19601f8301169050919050565b600061053c82610515565b6105468185610498565b935061055681856020860161041d565b61055f81610520565b840191505092915050565b600060208201905081810360008301526105848184610531565b905092915050565b6000819050919050565b61059f8161058c565b82525050565b60006020820190506105ba6000830184610596565b92915050565b7f4e487b7100000000000000000000000000000000000000000000000000000000600052602260045260246000fd5b6000600282049050600182168061060757607f821691505b6020821081141561061b5761061a6105c0565b5b5091905056fea2646970667358221220a06c951768a8d041c2f519e18fb9fc8ec17c14d85e56050d31c71737fe2a005b64736f6c634300080a0033",
  "immutableReferences": {},
  "source": "pragma solidity 0.8.10;\n\n//SPDX-License-Identifier: MIT\n\nimport \"./CampaignManager.sol\";\n\ncontract Campaign {\n\n    string public campaignId;\n    string public campaignName;\n    address public ownerAddress;\n    uint public index;\n    CampaignManager parentContract;\n\n    constructor(CampaignManager _parentContract, string memory _campaignId, string memory _campaignName, uint _index) {\n        campaignId = _campaignId;\n        campaignName = _campaignName;\n        index = _index;\n        ownerAddress = msg.sender;\n        parentContract = _parentContract;\n    }\n\n    receive() external payable {\n        (bool success, ) = address(parentContract).call{value:msg.value}(abi.encodeWithSignature(\"fundCampaign(address)\", address(this)));\n        require(success, \"Payment failed\");\n    }\n\n    fallback() external  {\n\n    }\n}",
  "sourcePath": "/Users/nedsoft/www/blockchain/campaign-manager/contracts/Campaign.sol",
  "compiler": {
    "name": "solc",
    "version": "0.8.10+commit.fc410830.Emscripten.clang"
  },
  "schemaVersion": "3.4.5",
  "updatedAt": "2022-03-08T16:15:20.610Z",
  "devdoc": {
    "kind": "dev",
    "methods": {},
    "version": 1
  },
  "userdoc": {
    "kind": "user",
    "methods": {},
    "version": 1
  }
}