{
  "contractName": "CampaignManager",
  "abi": [
    {
      "anonymous": false,
      "inputs": [
        {
          "indexed": true,
          "internalType": "uint256",
          "name": "campaignIndex",
          "type": "uint256"
        },
        {
          "indexed": false,
          "internalType": "address",
          "name": "campaignAddress",
          "type": "address"
        }
      ],
      "name": "CampaignCreated",
      "type": "event"
    },
    {
      "anonymous": false,
      "inputs": [
        {
          "indexed": false,
          "internalType": "address",
          "name": "campaignAddress",
          "type": "address"
        },
        {
          "indexed": false,
          "internalType": "address",
          "name": "toAddress",
          "type": "address"
        },
        {
          "indexed": false,
          "internalType": "uint256",
          "name": "amount",
          "type": "uint256"
        },
        {
          "indexed": false,
          "internalType": "uint256",
          "name": "balance",
          "type": "uint256"
        }
      ],
      "name": "CampaignFundWithdrawn",
      "type": "event"
    },
    {
      "anonymous": false,
      "inputs": [
        {
          "indexed": false,
          "internalType": "address",
          "name": "campaignAddress",
          "type": "address"
        },
        {
          "indexed": false,
          "internalType": "address",
          "name": "donorAddress",
          "type": "address"
        },
        {
          "indexed": false,
          "internalType": "uint256",
          "name": "amount",
          "type": "uint256"
        },
        {
          "indexed": false,
          "internalType": "uint256",
          "name": "totalReceived",
          "type": "uint256"
        }
      ],
      "name": "CampaignFunded",
      "type": "event"
    },
    {
      "inputs": [
        {
          "internalType": "address",
          "name": "",
          "type": "address"
        }
      ],
      "name": "campaigns",
      "outputs": [
        {
          "internalType": "contract Campaign",
          "name": "campaign",
          "type": "address"
        },
        {
          "internalType": "uint256",
          "name": "balance",
          "type": "uint256"
        }
      ],
      "stateMutability": "view",
      "type": "function"
    },
    {
      "inputs": [
        {
          "internalType": "address",
          "name": "",
          "type": "address"
        },
        {
          "internalType": "address",
          "name": "",
          "type": "address"
        }
      ],
      "name": "donors",
      "outputs": [
        {
          "internalType": "uint256",
          "name": "",
          "type": "uint256"
        }
      ],
      "stateMutability": "view",
      "type": "function"
    },
    {
      "inputs": [
        {
          "internalType": "string",
          "name": "_campaignId",
          "type": "string"
        },
        {
          "internalType": "string",
          "name": "_campaignName",
          "type": "string"
        }
      ],
      "name": "createCampaign",
      "outputs": [],
      "stateMutability": "nonpayable",
      "type": "function"
    },
    {
      "inputs": [
        {
          "internalType": "address",
          "name": "campaignAddres",
          "type": "address"
        }
      ],
      "name": "fundCampaign",
      "outputs": [],
      "stateMutability": "payable",
      "type": "function"
    },
    {
      "inputs": [
        {
          "internalType": "address",
          "name": "campaignAddres",
          "type": "address"
        },
        {
          "internalType": "address payable",
          "name": "_toAddress",
          "type": "address"
        },
        {
          "internalType": "uint256",
          "name": "amount",
          "type": "uint256"
        }
      ],
      "name": "withdrawCampaignFunds",
      "outputs": [],
      "stateMutability": "nonpayable",
      "type": "function"
    }
  ],
  "bytecode": "0x6080604052600160035534801561001557600080fd5b50336000806101000a81548173ffffffffffffffffffffffffffffffffffffffff021916908373ffffffffffffffffffffffffffffffffffffffff160217905550611e20806100656000396000f3fe608060405260043610620000505760003560e01c80631601d0b5146200005557806358a15acb146200009a5780636682717e14620000c85780638f3ac94614620000e8578063fce3f6ac146200012c575b600080fd5b3480156200006257600080fd5b506200008160048036038101906200007b9190620009a4565b6200015a565b6040516200009192919062000a5c565b60405180910390f35b348015620000a757600080fd5b50620000c66004803603810190620000c0919062000aff565b6200019e565b005b620000e66004803603810190620000e09190620009a4565b6200052a565b005b348015620000f557600080fd5b506200011460048036038101906200010e919062000b5b565b620006cc565b60405162000123919062000ba2565b60405180910390f35b3480156200013957600080fd5b5062000158600480360381019062000152919062000d21565b620006f1565b005b60016020528060005260406000206000915090508060000160009054906101000a900473ffffffffffffffffffffffffffffffffffffffff16908060010154905082565b60008054906101000a900473ffffffffffffffffffffffffffffffffffffffff1673ffffffffffffffffffffffffffffffffffffffff163373ffffffffffffffffffffffffffffffffffffffff16146200022f576040517f08c379a0000000000000000000000000000000000000000000000000000000008152600401620002269062000e2d565b60405180910390fd5b600073ffffffffffffffffffffffffffffffffffffffff16600160008573ffffffffffffffffffffffffffffffffffffffff1673ffffffffffffffffffffffffffffffffffffffff16815260200190815260200160002060000160009054906101000a900473ffffffffffffffffffffffffffffffffffffffff1673ffffffffffffffffffffffffffffffffffffffff16141562000304576040517f08c379a0000000000000000000000000000000000000000000000000000000008152600401620002fb9062000ec5565b60405180910390fd5b6000600160008573ffffffffffffffffffffffffffffffffffffffff1673ffffffffffffffffffffffffffffffffffffffff1681526020019081526020016000206040518060400160405290816000820160009054906101000a900473ffffffffffffffffffffffffffffffffffffffff1673ffffffffffffffffffffffffffffffffffffffff1673ffffffffffffffffffffffffffffffffffffffff16815260200160018201548152505090508181602001511015620003fc576040517f08c379a0000000000000000000000000000000000000000000000000000000008152600401620003f39062000f37565b60405180910390fd5b8273ffffffffffffffffffffffffffffffffffffffff166108fc839081150290604051600060405180830381858888f1935050505015801562000443573d6000803e3d6000fd5b506200045d828260200151620008ed90919063ffffffff16565b600160008673ffffffffffffffffffffffffffffffffffffffff1673ffffffffffffffffffffffffffffffffffffffff168152602001908152602001600020600101819055507fd05aadc277db28a78d5d6844b07b533b05657a4bffbe1c876329056adadb7651848484600160008973ffffffffffffffffffffffffffffffffffffffff1673ffffffffffffffffffffffffffffffffffffffff168152602001908152602001600020600101546040516200051c949392919062000fa3565b60405180910390a150505050565b6200058134600160008473ffffffffffffffffffffffffffffffffffffffff1673ffffffffffffffffffffffffffffffffffffffff168152602001908152602001600020600101546200090590919063ffffffff16565b600160008373ffffffffffffffffffffffffffffffffffffffff1673ffffffffffffffffffffffffffffffffffffffff1681526020019081526020016000206001018190555034600260008373ffffffffffffffffffffffffffffffffffffffff1673ffffffffffffffffffffffffffffffffffffffff16815260200190815260200160002060003373ffffffffffffffffffffffffffffffffffffffff1673ffffffffffffffffffffffffffffffffffffffff168152602001908152602001600020819055507f1d115638726a482fed1eefca9e628c50a888615fb126c7411ee54be6c407d882813334600160008673ffffffffffffffffffffffffffffffffffffffff1673ffffffffffffffffffffffffffffffffffffffff16815260200190815260200160002060010154604051620006c1949392919062000ff0565b60405180910390a150565b6002602052816000526040600020602052806000526040600020600091509150505481565b60008054906101000a900473ffffffffffffffffffffffffffffffffffffffff1673ffffffffffffffffffffffffffffffffffffffff163373ffffffffffffffffffffffffffffffffffffffff161462000782576040517f08c379a0000000000000000000000000000000000000000000000000000000008152600401620007799062000e2d565b60405180910390fd5b600030838360035460405162000798906200091d565b620007a79493929190620010e4565b604051809103906000f080158015620007c4573d6000803e3d6000fd5b5090506000819050600060405180604001604052808473ffffffffffffffffffffffffffffffffffffffff1681526020016000815250905080600160008473ffffffffffffffffffffffffffffffffffffffff1673ffffffffffffffffffffffffffffffffffffffff16815260200190815260200160002060008201518160000160006101000a81548173ffffffffffffffffffffffffffffffffffffffff021916908373ffffffffffffffffffffffffffffffffffffffff160217905550602082015181600101559050506003547f633109eec20320eded000fc1e2634211aa7e92ba3f5b15faf6dcdafca05094e483604051620008c491906200113f565b60405180910390a260036000815480929190620008e1906200118b565b91905055505050505050565b60008183620008fd9190620011d9565b905092915050565b6000818362000915919062001214565b905092915050565b610b79806200127283390190565b6000604051905090565b600080fd5b600080fd5b600073ffffffffffffffffffffffffffffffffffffffff82169050919050565b60006200096c826200093f565b9050919050565b6200097e816200095f565b81146200098a57600080fd5b50565b6000813590506200099e8162000973565b92915050565b600060208284031215620009bd57620009bc62000935565b5b6000620009cd848285016200098d565b91505092915050565b6000819050919050565b600062000a01620009fb620009f5846200093f565b620009d6565b6200093f565b9050919050565b600062000a1582620009e0565b9050919050565b600062000a298262000a08565b9050919050565b62000a3b8162000a1c565b82525050565b6000819050919050565b62000a568162000a41565b82525050565b600060408201905062000a73600083018562000a30565b62000a82602083018462000a4b565b9392505050565b600062000a96826200093f565b9050919050565b62000aa88162000a89565b811462000ab457600080fd5b50565b60008135905062000ac88162000a9d565b92915050565b62000ad98162000a41565b811462000ae557600080fd5b50565b60008135905062000af98162000ace565b92915050565b60008060006060848603121562000b1b5762000b1a62000935565b5b600062000b2b868287016200098d565b935050602062000b3e8682870162000ab7565b925050604062000b518682870162000ae8565b9150509250925092565b6000806040838503121562000b755762000b7462000935565b5b600062000b85858286016200098d565b925050602062000b98858286016200098d565b9150509250929050565b600060208201905062000bb9600083018462000a4b565b92915050565b600080fd5b600080fd5b6000601f19601f8301169050919050565b7f4e487b7100000000000000000000000000000000000000000000000000000000600052604160045260246000fd5b62000c148262000bc9565b810181811067ffffffffffffffff8211171562000c365762000c3562000bda565b5b80604052505050565b600062000c4b6200092b565b905062000c59828262000c09565b919050565b600067ffffffffffffffff82111562000c7c5762000c7b62000bda565b5b62000c878262000bc9565b9050602081019050919050565b82818337600083830152505050565b600062000cba62000cb48462000c5e565b62000c3f565b90508281526020810184848401111562000cd95762000cd862000bc4565b5b62000ce684828562000c94565b509392505050565b600082601f83011262000d065762000d0562000bbf565b5b813562000d1884826020860162000ca3565b91505092915050565b6000806040838503121562000d3b5762000d3a62000935565b5b600083013567ffffffffffffffff81111562000d5c5762000d5b6200093a565b5b62000d6a8582860162000cee565b925050602083013567ffffffffffffffff81111562000d8e5762000d8d6200093a565b5b62000d9c8582860162000cee565b9150509250929050565b600082825260208201905092915050565b7f4f6e6c7920436f6e7472616374204f776e65722063616e20617574686f72697a60008201527f652074686973206f7065726174696f6e00000000000000000000000000000000602082015250565b600062000e1560308362000da6565b915062000e228262000db7565b604082019050919050565b6000602082019050818103600083015262000e488162000e06565b9050919050565b7f5468652063616d706169676e206164647265737320737570706c69656420646f60008201527f6573206e6f742065786973740000000000000000000000000000000000000000602082015250565b600062000ead602c8362000da6565b915062000eba8262000e4f565b604082019050919050565b6000602082019050818103600083015262000ee08162000e9e565b9050919050565b7f496e73756666696369656e742066756e64730000000000000000000000000000600082015250565b600062000f1f60128362000da6565b915062000f2c8262000ee7565b602082019050919050565b6000602082019050818103600083015262000f528162000f10565b9050919050565b62000f64816200095f565b82525050565b600062000f7782620009e0565b9050919050565b600062000f8b8262000f6a565b9050919050565b62000f9d8162000f7e565b82525050565b600060808201905062000fba600083018762000f59565b62000fc9602083018662000f92565b62000fd8604083018562000a4b565b62000fe7606083018462000a4b565b95945050505050565b600060808201905062001007600083018762000f59565b62001016602083018662000f59565b62001025604083018562000a4b565b62001034606083018462000a4b565b95945050505050565b60006200104a8262000f6a565b9050919050565b6200105c816200103d565b82525050565b600081519050919050565b60005b838110156200108d57808201518184015260208101905062001070565b838111156200109d576000848401525b50505050565b6000620010b08262001062565b620010bc818562000da6565b9350620010ce8185602086016200106d565b620010d98162000bc9565b840191505092915050565b6000608082019050620010fb600083018762001051565b81810360208301526200110f8186620010a3565b90508181036040830152620011258185620010a3565b905062001136606083018462000a4b565b95945050505050565b600060208201905062001156600083018462000f59565b92915050565b7f4e487b7100000000000000000000000000000000000000000000000000000000600052601160045260246000fd5b6000620011988262000a41565b91507fffffffffffffffffffffffffffffffffffffffffffffffffffffffffffffffff821415620011ce57620011cd6200115c565b5b600182019050919050565b6000620011e68262000a41565b9150620011f38362000a41565b9250828210156200120957620012086200115c565b5b828203905092915050565b6000620012218262000a41565b91506200122e8362000a41565b9250827fffffffffffffffffffffffffffffffffffffffffffffffffffffffffffffffff038211156200126657620012656200115c565b5b82820190509291505056fe60806040523480156200001157600080fd5b5060405162000b7938038062000b798339818101604052810190620000379190620003fd565b82600090805190602001906200004f929190620000fc565b50816001908051906020019062000068929190620000fc565b508060038190555033600260006101000a81548173ffffffffffffffffffffffffffffffffffffffff021916908373ffffffffffffffffffffffffffffffffffffffff16021790555083600460006101000a81548173ffffffffffffffffffffffffffffffffffffffff021916908373ffffffffffffffffffffffffffffffffffffffff1602179055505050505062000512565b8280546200010a90620004dc565b90600052602060002090601f0160209004810192826200012e57600085556200017a565b82601f106200014957805160ff19168380011785556200017a565b828001600101855582156200017a579182015b82811115620001795782518255916020019190600101906200015c565b5b5090506200018991906200018d565b5090565b5b80821115620001a85760008160009055506001016200018e565b5090565b6000604051905090565b600080fd5b600080fd5b600073ffffffffffffffffffffffffffffffffffffffff82169050919050565b6000620001ed82620001c0565b9050919050565b60006200020182620001e0565b9050919050565b6200021381620001f4565b81146200021f57600080fd5b50565b600081519050620002338162000208565b92915050565b600080fd5b600080fd5b6000601f19601f8301169050919050565b7f4e487b7100000000000000000000000000000000000000000000000000000000600052604160045260246000fd5b6200028e8262000243565b810181811067ffffffffffffffff82111715620002b057620002af62000254565b5b80604052505050565b6000620002c5620001ac565b9050620002d3828262000283565b919050565b600067ffffffffffffffff821115620002f657620002f562000254565b5b620003018262000243565b9050602081019050919050565b60005b838110156200032e57808201518184015260208101905062000311565b838111156200033e576000848401525b50505050565b60006200035b6200035584620002d8565b620002b9565b9050828152602081018484840111156200037a57620003796200023e565b5b620003878482856200030e565b509392505050565b600082601f830112620003a757620003a662000239565b5b8151620003b984826020860162000344565b91505092915050565b6000819050919050565b620003d781620003c2565b8114620003e357600080fd5b50565b600081519050620003f781620003cc565b92915050565b600080600080608085870312156200041a5762000419620001b6565b5b60006200042a8782880162000222565b945050602085015167ffffffffffffffff8111156200044e576200044d620001bb565b5b6200045c878288016200038f565b935050604085015167ffffffffffffffff81111562000480576200047f620001bb565b5b6200048e878288016200038f565b9250506060620004a187828801620003e6565b91505092959194509250565b7f4e487b7100000000000000000000000000000000000000000000000000000000600052602260045260246000fd5b60006002820490506001821680620004f557607f821691505b602082108114156200050c576200050b620004ad565b5b50919050565b61065780620005226000396000f3fe6080604052600436106100435760003560e01c80630724fda9146101b75780632986c0e5146101e25780638ed5b0fc1461020d5780638f84aa0914610238576101a8565b366101a8576000600460009054906101000a900473ffffffffffffffffffffffffffffffffffffffff1673ffffffffffffffffffffffffffffffffffffffff16343060405160240161009591906103ec565b6040516020818303038152906040527f6682717e000000000000000000000000000000000000000000000000000000007bffffffffffffffffffffffffffffffffffffffffffffffffffffffff19166020820180517bffffffffffffffffffffffffffffffffffffffffffffffffffffffff838183161783525050505060405161011f9190610481565b60006040518083038185875af1925050503d806000811461015c576040519150601f19603f3d011682016040523d82523d6000602084013e610161565b606091505b50509050806101a5576040517f08c379a000000000000000000000000000000000000000000000000000000000815260040161019c906104f5565b60405180910390fd5b50005b3480156101b457600080fd5b50005b3480156101c357600080fd5b506101cc610263565b6040516101d9919061056a565b60405180910390f35b3480156101ee57600080fd5b506101f76102f1565b60405161020491906105a5565b60405180910390f35b34801561021957600080fd5b506102226102f7565b60405161022f919061056a565b60405180910390f35b34801561024457600080fd5b5061024d610385565b60405161025a91906103ec565b60405180910390f35b60018054610270906105ef565b80601f016020809104026020016040519081016040528092919081815260200182805461029c906105ef565b80156102e95780601f106102be576101008083540402835291602001916102e9565b820191906000526020600020905b8154815290600101906020018083116102cc57829003601f168201915b505050505081565b60035481565b60008054610304906105ef565b80601f0160208091040260200160405190810160405280929190818152602001828054610330906105ef565b801561037d5780601f106103525761010080835404028352916020019161037d565b820191906000526020600020905b81548152906001019060200180831161036057829003601f168201915b505050505081565b600260009054906101000a900473ffffffffffffffffffffffffffffffffffffffff1681565b600073ffffffffffffffffffffffffffffffffffffffff82169050919050565b60006103d6826103ab565b9050919050565b6103e6816103cb565b82525050565b600060208201905061040160008301846103dd565b92915050565b600081519050919050565b600081905092915050565b60005b8381101561043b578082015181840152602081019050610420565b8381111561044a576000848401525b50505050565b600061045b82610407565b6104658185610412565b935061047581856020860161041d565b80840191505092915050565b600061048d8284610450565b915081905092915050565b600082825260208201905092915050565b7f5061796d656e74206661696c6564000000000000000000000000000000000000600082015250565b60006104df600e83610498565b91506104ea826104a9565b602082019050919050565b6000602082019050818103600083015261050e816104d2565b9050919050565b600081519050919050565b6000601f19601f8301169050919050565b600061053c82610515565b6105468185610498565b935061055681856020860161041d565b61055f81610520565b840191505092915050565b600060208201905081810360008301526105848184610531565b905092915050565b6000819050919050565b61059f8161058c565b82525050565b60006020820190506105ba6000830184610596565b92915050565b7f4e487b7100000000000000000000000000000000000000000000000000000000600052602260045260246000fd5b6000600282049050600182168061060757607f821691505b6020821081141561061b5761061a6105c0565b5b5091905056fea2646970667358221220a06c951768a8d041c2f519e18fb9fc8ec17c14d85e56050d31c71737fe2a005b64736f6c634300080a0033a2646970667358221220a525a4bf2f37301f9902d8aa1202d5748f0ea1e95d5843071a078129e377c97564736f6c634300080a0033",
  "immutableReferences": {},
  "source": "pragma solidity 0.8.10;\n\n//SPDX-License-Identifier: MIT\n\n/**\n* \n* Openzeppelin library\n*/\nimport \"@openzeppelin/contracts/utils/math/SafeMath.sol\";\n\nimport \"./Campaign.sol\";\nimport \"./Ownable.sol\";\n\n\ncontract CampaignManager is Ownable { \n\n    using SafeMath for uint;\n    \n    struct S_Campaign {\n        Campaign campaign;\n        uint balance;\n    }\n\n    mapping(address => S_Campaign) public campaigns;\n    mapping(address => mapping(address => uint)) public donors;\n\n    uint index = 1;\n\n    event CampaignCreated(uint indexed campaignIndex, address campaignAddress);\n    event CampaignFunded(address campaignAddress, address donorAddress, uint amount, uint totalReceived);\n    event CampaignFundWithdrawn(address campaignAddress, address toAddress, uint amount, uint balance);\n\n    function createCampaign(string memory _campaignId,  string memory _campaignName) public onlyOwner  {\n        Campaign newCampaign = new Campaign(this, _campaignId, _campaignName, index);\n        address  _addr = address(newCampaign);\n        S_Campaign  memory _sCampaign = S_Campaign({ campaign: newCampaign,  balance: uint(0)});\n        campaigns[_addr] = _sCampaign;\n        emit CampaignCreated(index, _addr);\n        index++;\n\n    }\n\n    function fundCampaign(address campaignAddres) public payable {\n        campaigns[campaignAddres].balance = campaigns[campaignAddres].balance.add(msg.value);\n        donors[campaignAddres][msg.sender] = msg.value;\n        emit CampaignFunded(campaignAddres, msg.sender, msg.value, campaigns[campaignAddres].balance);\n    }\n\n    function withdrawCampaignFunds(address campaignAddres, address payable _toAddress, uint amount) public onlyOwner {\n        require(address(campaigns[campaignAddres].campaign) != address(0), \"The campaign address supplied does not exist\");\n        S_Campaign memory campaign = campaigns[campaignAddres];\n        require(campaign.balance >= amount, \"Insufficient funds\");\n        _toAddress.transfer(amount);\n        campaigns[campaignAddres].balance = campaign.balance.sub(amount);\n        emit CampaignFundWithdrawn(campaignAddres, _toAddress, amount, campaigns[campaignAddres].balance);\n    }\n\n    \n}\n\n",
  "sourcePath": "/Users/nedsoft/www/blockchain/campaign-manager/contracts/CampaignManager.sol",
  "compiler": {
    "name": "solc",
    "version": "0.8.10+commit.fc410830.Emscripten.clang"
  },
  "schemaVersion": "3.4.5",
  "updatedAt": "2022-03-08T16:15:20.617Z",
  "devdoc": {
    "kind": "dev",
    "methods": {},
    "version": 1
  },
  "userdoc": {
    "kind": "user",
    "methods": {},
    "version": 1
  }
}